{
  "contractName": "DFiles",
  "abi": [
    {
      "anonymous": false,
      "inputs": [
        {
          "indexed": false,
          "internalType": "uint256",
          "name": "fileId",
          "type": "uint256"
        },
        {
          "indexed": false,
          "internalType": "string",
          "name": "fileHash",
          "type": "string"
        },
        {
          "indexed": false,
          "internalType": "uint256",
          "name": "fileSize",
          "type": "uint256"
        },
        {
          "indexed": false,
          "internalType": "string",
          "name": "fileType",
          "type": "string"
        },
        {
          "indexed": false,
          "internalType": "string",
          "name": "fileName",
          "type": "string"
        },
        {
          "indexed": false,
          "internalType": "string",
          "name": "fileDescription",
          "type": "string"
        },
        {
          "indexed": false,
          "internalType": "uint256",
          "name": "uploadTime",
          "type": "uint256"
        },
        {
          "indexed": false,
          "internalType": "address payable",
          "name": "uploader",
          "type": "address"
        }
      ],
      "name": "FileUploaded",
      "type": "event"
    },
    {
      "inputs": [],
      "name": "fileCount",
      "outputs": [
        {
          "internalType": "uint256",
          "name": "",
          "type": "uint256"
        }
      ],
      "stateMutability": "view",
      "type": "function",
      "constant": true
    },
    {
      "inputs": [
        {
          "internalType": "uint256",
          "name": "",
          "type": "uint256"
        }
      ],
      "name": "files",
      "outputs": [
        {
          "internalType": "uint256",
          "name": "fileId",
          "type": "uint256"
        },
        {
          "internalType": "string",
          "name": "fileHash",
          "type": "string"
        },
        {
          "internalType": "uint256",
          "name": "fileSize",
          "type": "uint256"
        },
        {
          "internalType": "string",
          "name": "fileType",
          "type": "string"
        },
        {
          "internalType": "string",
          "name": "fileName",
          "type": "string"
        },
        {
          "internalType": "string",
          "name": "fileDescription",
          "type": "string"
        },
        {
          "internalType": "uint256",
          "name": "uploadTime",
          "type": "uint256"
        },
        {
          "internalType": "address payable",
          "name": "uploader",
          "type": "address"
        }
      ],
      "stateMutability": "view",
      "type": "function",
      "constant": true
    },
    {
      "inputs": [],
      "name": "name",
      "outputs": [
        {
          "internalType": "string",
          "name": "",
          "type": "string"
        }
      ],
      "stateMutability": "view",
      "type": "function",
      "constant": true
    },
    {
      "inputs": [
        {
          "internalType": "string",
          "name": "_fileHash",
          "type": "string"
        },
        {
          "internalType": "uint256",
          "name": "_fileSize",
          "type": "uint256"
        },
        {
          "internalType": "string",
          "name": "_fileType",
          "type": "string"
        },
        {
          "internalType": "string",
          "name": "_fileName",
          "type": "string"
        },
        {
          "internalType": "string",
          "name": "_fileDescription",
          "type": "string"
        }
      ],
      "name": "uploadFile",
      "outputs": [],
      "stateMutability": "nonpayable",
      "type": "function"
    }
  ],
  "bytecode": "0x60806040526040518060400160405280600681526020017f4446696c6573000000000000000000000000000000000000000000000000000081525060009080519060200190620000519291906200006b565b5060006001553480156200006457600080fd5b5062000180565b82805462000079906200014a565b90600052602060002090601f0160209004810192826200009d5760008555620000e9565b82601f10620000b857805160ff1916838001178555620000e9565b82800160010185558215620000e9579182015b82811115620000e8578251825591602001919060010190620000cb565b5b509050620000f89190620000fc565b5090565b5b8082111562000117576000816000905550600101620000fd565b5090565b7f4e487b7100000000000000000000000000000000000000000000000000000000600052602260045260246000fd5b600060028204905060018216806200016357607f821691505b602082108114156200017a57620001796200011b565b5b50919050565b610c2d80620001906000396000f3fe608060405234801561001057600080fd5b506004361061004c5760003560e01c806306fdde0314610051578063439535191461006f578063e82d9d331461008d578063f4c714b4146100a9575b600080fd5b6100596100e0565b6040516100669190610760565b60405180910390f35b61007761016e565b604051610084919061079b565b60405180910390f35b6100a760048036038101906100a2919061092b565b610174565b005b6100c360048036038101906100be9190610a16565b61039c565b6040516100d7989796959493929190610a84565b60405180910390f35b600080546100ed90610b4d565b80601f016020809104026020016040519081016040528092919081815260200182805461011990610b4d565b80156101665780601f1061013b57610100808354040283529160200191610166565b820191906000526020600020905b81548152906001019060200180831161014957829003601f168201915b505050505081565b60015481565b600085511161018257600080fd5b600083511161019057600080fd5b600081511161019e57600080fd5b60008251116101ac57600080fd5b600073ffffffffffffffffffffffffffffffffffffffff163373ffffffffffffffffffffffffffffffffffffffff1614156101e657600080fd5b600084116101f357600080fd5b6001600081548092919061020690610bae565b919050555060405180610100016040528060015481526020018681526020018581526020018481526020018381526020018281526020014281526020013373ffffffffffffffffffffffffffffffffffffffff16815250600260006001548152602001908152602001600020600082015181600001556020820151816001019080519060200190610298929190610624565b506040820151816002015560608201518160030190805190602001906102bf929190610624565b5060808201518160040190805190602001906102dc929190610624565b5060a08201518160050190805190602001906102f9929190610624565b5060c0820151816006015560e08201518160070160006101000a81548173ffffffffffffffffffffffffffffffffffffffff021916908373ffffffffffffffffffffffffffffffffffffffff1602179055509050507f6e95bbaa37a5fdec42a312e049dea2fe6160ebe659214d3409b4f91f164c2f526001548686868686423360405161038d989796959493929190610a84565b60405180910390a15050505050565b60026020528060005260406000206000915090508060000154908060010180546103c590610b4d565b80601f01602080910402602001604051908101604052809291908181526020018280546103f190610b4d565b801561043e5780601f106104135761010080835404028352916020019161043e565b820191906000526020600020905b81548152906001019060200180831161042157829003601f168201915b50505050509080600201549080600301805461045990610b4d565b80601f016020809104026020016040519081016040528092919081815260200182805461048590610b4d565b80156104d25780601f106104a7576101008083540402835291602001916104d2565b820191906000526020600020905b8154815290600101906020018083116104b557829003601f168201915b5050505050908060040180546104e790610b4d565b80601f016020809104026020016040519081016040528092919081815260200182805461051390610b4d565b80156105605780601f1061053557610100808354040283529160200191610560565b820191906000526020600020905b81548152906001019060200180831161054357829003601f168201915b50505050509080600501805461057590610b4d565b80601f01602080910402602001604051908101604052809291908181526020018280546105a190610b4d565b80156105ee5780601f106105c3576101008083540402835291602001916105ee565b820191906000526020600020905b8154815290600101906020018083116105d157829003601f168201915b5050505050908060060154908060070160009054906101000a900473ffffffffffffffffffffffffffffffffffffffff16905088565b82805461063090610b4d565b90600052602060002090601f0160209004810192826106525760008555610699565b82601f1061066b57805160ff1916838001178555610699565b82800160010185558215610699579182015b8281111561069857825182559160200191906001019061067d565b5b5090506106a691906106aa565b5090565b5b808211156106c35760008160009055506001016106ab565b5090565b600081519050919050565b600082825260208201905092915050565b60005b838110156107015780820151818401526020810190506106e6565b83811115610710576000848401525b50505050565b6000601f19601f8301169050919050565b6000610732826106c7565b61073c81856106d2565b935061074c8185602086016106e3565b61075581610716565b840191505092915050565b6000602082019050818103600083015261077a8184610727565b905092915050565b6000819050919050565b61079581610782565b82525050565b60006020820190506107b0600083018461078c565b92915050565b6000604051905090565b600080fd5b600080fd5b600080fd5b600080fd5b7f4e487b7100000000000000000000000000000000000000000000000000000000600052604160045260246000fd5b61080c82610716565b810181811067ffffffffffffffff8211171561082b5761082a6107d4565b5b80604052505050565b600061083e6107b6565b905061084a8282610803565b919050565b600067ffffffffffffffff82111561086a576108696107d4565b5b61087382610716565b9050602081019050919050565b82818337600083830152505050565b60006108a261089d8461084f565b610834565b9050828152602081018484840111156108be576108bd6107cf565b5b6108c9848285610880565b509392505050565b600082601f8301126108e6576108e56107ca565b5b81356108f684826020860161088f565b91505092915050565b61090881610782565b811461091357600080fd5b50565b600081359050610925816108ff565b92915050565b600080600080600060a08688031215610947576109466107c0565b5b600086013567ffffffffffffffff811115610965576109646107c5565b5b610971888289016108d1565b955050602061098288828901610916565b945050604086013567ffffffffffffffff8111156109a3576109a26107c5565b5b6109af888289016108d1565b935050606086013567ffffffffffffffff8111156109d0576109cf6107c5565b5b6109dc888289016108d1565b925050608086013567ffffffffffffffff8111156109fd576109fc6107c5565b5b610a09888289016108d1565b9150509295509295909350565b600060208284031215610a2c57610a2b6107c0565b5b6000610a3a84828501610916565b91505092915050565b600073ffffffffffffffffffffffffffffffffffffffff82169050919050565b6000610a6e82610a43565b9050919050565b610a7e81610a63565b82525050565b600061010082019050610a9a600083018b61078c565b8181036020830152610aac818a610727565b9050610abb604083018961078c565b8181036060830152610acd8188610727565b90508181036080830152610ae18187610727565b905081810360a0830152610af58186610727565b9050610b0460c083018561078c565b610b1160e0830184610a75565b9998505050505050505050565b7f4e487b7100000000000000000000000000000000000000000000000000000000600052602260045260246000fd5b60006002820490506001821680610b6557607f821691505b60208210811415610b7957610b78610b1e565b5b50919050565b7f4e487b7100000000000000000000000000000000000000000000000000000000600052601160045260246000fd5b6000610bb982610782565b91507fffffffffffffffffffffffffffffffffffffffffffffffffffffffffffffffff821415610bec57610beb610b7f565b5b60018201905091905056fea2646970667358221220275fd3007e4b7957967938e3c0a50d38c2e8fbcf760725e5e712228631351c0b64736f6c634300080b0033",
  "immutableReferences": {},
  "source": "// SPDX-License-Identifier: MIT\npragma solidity >=0.4.22 <0.9.0;\n\ncontract DFiles {\n    string public name = \"DFiles\";\n    uint256 public fileCount = 0;\n    mapping(uint256 => File) public files;\n\n    struct File {\n        uint256 fileId;\n        string fileHash;\n        uint256 fileSize;\n        string fileType;\n        string fileName;\n        string fileDescription;\n        uint256 uploadTime;\n        address payable uploader;\n    }\n\n    event FileUploaded(\n        uint256 fileId,\n        string fileHash,\n        uint256 fileSize,\n        string fileType,\n        string fileName,\n        string fileDescription,\n        uint256 uploadTime,\n        address payable uploader\n    );\n\n    function uploadFile(\n        string memory _fileHash,\n        uint256 _fileSize,\n        string memory _fileType,\n        string memory _fileName,\n        string memory _fileDescription\n    ) public {\n        require(bytes(_fileHash).length > 0);\n        require(bytes(_fileType).length > 0);\n        require(bytes(_fileDescription).length > 0);\n        require(bytes(_fileName).length > 0);\n        require(msg.sender != address(0));\n        require(_fileSize > 0);\n\n        fileCount++;\n\n        files[fileCount] = File(\n            fileCount,\n            _fileHash,\n            _fileSize,\n            _fileType,\n            _fileName,\n            _fileDescription,\n            block.timestamp,\n            payable(msg.sender)\n        );\n        \n        emit FileUploaded(\n            fileCount,\n            _fileHash,\n            _fileSize,\n            _fileType,\n            _fileName,\n            _fileDescription,\n            block.timestamp,\n            payable(msg.sender)\n        );\n    }\n}\n",
  "sourcePath": "/Users/marcoscarlomagno/repositories/persssist/contracts/DFiles.sol",
  "compiler": {
    "name": "solc",
    "version": "0.8.11+commit.d7f03943.Emscripten.clang"
  },
  "schemaVersion": "3.4.6",
  "updatedAt": "2022-03-18T18:29:23.594Z",
  "networkType": "ethereum",
  "devdoc": {
    "kind": "dev",
    "methods": {},
    "version": 1
  },
  "userdoc": {
    "kind": "user",
    "methods": {},
    "version": 1
  }
}