{
  "contractName": "Persssist",
  "abi": [
    {
      "anonymous": false,
      "inputs": [
        {
          "indexed": false,
          "internalType": "uint256",
          "name": "fileId",
          "type": "uint256"
        },
        {
          "indexed": false,
          "internalType": "string",
          "name": "filePath",
          "type": "string"
        },
        {
          "indexed": false,
          "internalType": "uint256",
          "name": "fileSize",
          "type": "uint256"
        },
        {
          "indexed": false,
          "internalType": "string",
          "name": "fileType",
          "type": "string"
        },
        {
          "indexed": false,
          "internalType": "string",
          "name": "fileName",
          "type": "string"
        },
        {
          "indexed": false,
          "internalType": "address payable",
          "name": "uploader",
          "type": "address"
        }
      ],
      "name": "FileUploaded",
      "type": "event"
    },
    {
      "inputs": [],
      "name": "fileCount",
      "outputs": [
        {
          "internalType": "uint256",
          "name": "",
          "type": "uint256"
        }
      ],
      "stateMutability": "view",
      "type": "function",
      "constant": true
    },
    {
      "inputs": [
        {
          "internalType": "uint256",
          "name": "",
          "type": "uint256"
        }
      ],
      "name": "files",
      "outputs": [
        {
          "internalType": "uint256",
          "name": "fileId",
          "type": "uint256"
        },
        {
          "internalType": "string",
          "name": "filePath",
          "type": "string"
        },
        {
          "internalType": "uint256",
          "name": "fileSize",
          "type": "uint256"
        },
        {
          "internalType": "string",
          "name": "fileType",
          "type": "string"
        },
        {
          "internalType": "string",
          "name": "fileName",
          "type": "string"
        },
        {
          "internalType": "address payable",
          "name": "uploader",
          "type": "address"
        }
      ],
      "stateMutability": "view",
      "type": "function",
      "constant": true
    },
    {
      "inputs": [],
      "name": "name",
      "outputs": [
        {
          "internalType": "string",
          "name": "",
          "type": "string"
        }
      ],
      "stateMutability": "view",
      "type": "function",
      "constant": true
    },
    {
      "inputs": [
        {
          "internalType": "string",
          "name": "_filePath",
          "type": "string"
        },
        {
          "internalType": "uint256",
          "name": "_fileSize",
          "type": "uint256"
        },
        {
          "internalType": "string",
          "name": "_fileType",
          "type": "string"
        },
        {
          "internalType": "string",
          "name": "_fileName",
          "type": "string"
        }
      ],
      "name": "uploadFile",
      "outputs": [],
      "stateMutability": "nonpayable",
      "type": "function"
    }
  ],
  "bytecode": "0x60806040526040518060400160405280600981526020017f50657273737369737400000000000000000000000000000000000000000000008152506000908051906020019061004f929190610067565b50600060015534801561006157600080fd5b5061016b565b82805461007390610139565b90600052602060002090601f01602090048101928261009557600085556100dc565b82601f106100ae57805160ff19168380011785556100dc565b828001600101855582156100dc579182015b828111156100db5782518255916020019190600101906100c0565b5b5090506100e991906100ed565b5090565b5b808211156101065760008160009055506001016100ee565b5090565b7f4e487b7100000000000000000000000000000000000000000000000000000000600052602260045260246000fd5b6000600282049050600182168061015157607f821691505b602082108114156101655761016461010a565b5b50919050565b610afc8061017a6000396000f3fe608060405234801561001057600080fd5b506004361061004c5760003560e01c806306fdde031461005157806320f217081461006f578063439535191461008b578063f4c714b4146100a9575b600080fd5b6100596100de565b6040516100669190610683565b60405180910390f35b61008960048036038101906100849190610824565b61016c565b005b61009361034d565b6040516100a091906108ee565b60405180910390f35b6100c360048036038101906100be9190610909565b610353565b6040516100d596959493929190610977565b60405180910390f35b600080546100eb90610a1c565b80601f016020809104026020016040519081016040528092919081815260200182805461011790610a1c565b80156101645780601f1061013957610100808354040283529160200191610164565b820191906000526020600020905b81548152906001019060200180831161014757829003601f168201915b505050505081565b600084511161017a57600080fd5b600082511161018857600080fd5b600081511161019657600080fd5b600073ffffffffffffffffffffffffffffffffffffffff163373ffffffffffffffffffffffffffffffffffffffff1614156101d057600080fd5b600083116101dd57600080fd5b600160008154809291906101f090610a7d565b91905055506040518060c0016040528060015481526020018581526020018481526020018381526020018281526020013373ffffffffffffffffffffffffffffffffffffffff16815250600260006001548152602001908152602001600020600082015181600001556020820151816001019080519060200190610275929190610547565b5060408201518160020155606082015181600301908051906020019061029c929190610547565b5060808201518160040190805190602001906102b9929190610547565b5060a08201518160050160006101000a81548173ffffffffffffffffffffffffffffffffffffffff021916908373ffffffffffffffffffffffffffffffffffffffff1602179055509050507f18fe72dea7e3849a958d8ddaf36c0a56df898162e5a3253bb944b1d9609b2e5c600154858585853360405161033f96959493929190610977565b60405180910390a150505050565b60015481565b600260205280600052604060002060009150905080600001549080600101805461037c90610a1c565b80601f01602080910402602001604051908101604052809291908181526020018280546103a890610a1c565b80156103f55780601f106103ca576101008083540402835291602001916103f5565b820191906000526020600020905b8154815290600101906020018083116103d857829003601f168201915b50505050509080600201549080600301805461041090610a1c565b80601f016020809104026020016040519081016040528092919081815260200182805461043c90610a1c565b80156104895780601f1061045e57610100808354040283529160200191610489565b820191906000526020600020905b81548152906001019060200180831161046c57829003601f168201915b50505050509080600401805461049e90610a1c565b80601f01602080910402602001604051908101604052809291908181526020018280546104ca90610a1c565b80156105175780601f106104ec57610100808354040283529160200191610517565b820191906000526020600020905b8154815290600101906020018083116104fa57829003601f168201915b5050505050908060050160009054906101000a900473ffffffffffffffffffffffffffffffffffffffff16905086565b82805461055390610a1c565b90600052602060002090601f01602090048101928261057557600085556105bc565b82601f1061058e57805160ff19168380011785556105bc565b828001600101855582156105bc579182015b828111156105bb5782518255916020019190600101906105a0565b5b5090506105c991906105cd565b5090565b5b808211156105e65760008160009055506001016105ce565b5090565b600081519050919050565b600082825260208201905092915050565b60005b83811015610624578082015181840152602081019050610609565b83811115610633576000848401525b50505050565b6000601f19601f8301169050919050565b6000610655826105ea565b61065f81856105f5565b935061066f818560208601610606565b61067881610639565b840191505092915050565b6000602082019050818103600083015261069d818461064a565b905092915050565b6000604051905090565b600080fd5b600080fd5b600080fd5b600080fd5b7f4e487b7100000000000000000000000000000000000000000000000000000000600052604160045260246000fd5b6106fb82610639565b810181811067ffffffffffffffff8211171561071a576107196106c3565b5b80604052505050565b600061072d6106a5565b905061073982826106f2565b919050565b600067ffffffffffffffff821115610759576107586106c3565b5b61076282610639565b9050602081019050919050565b82818337600083830152505050565b600061079161078c8461073e565b610723565b9050828152602081018484840111156107ad576107ac6106be565b5b6107b884828561076f565b509392505050565b600082601f8301126107d5576107d46106b9565b5b81356107e584826020860161077e565b91505092915050565b6000819050919050565b610801816107ee565b811461080c57600080fd5b50565b60008135905061081e816107f8565b92915050565b6000806000806080858703121561083e5761083d6106af565b5b600085013567ffffffffffffffff81111561085c5761085b6106b4565b5b610868878288016107c0565b94505060206108798782880161080f565b935050604085013567ffffffffffffffff81111561089a576108996106b4565b5b6108a6878288016107c0565b925050606085013567ffffffffffffffff8111156108c7576108c66106b4565b5b6108d3878288016107c0565b91505092959194509250565b6108e8816107ee565b82525050565b600060208201905061090360008301846108df565b92915050565b60006020828403121561091f5761091e6106af565b5b600061092d8482850161080f565b91505092915050565b600073ffffffffffffffffffffffffffffffffffffffff82169050919050565b600061096182610936565b9050919050565b61097181610956565b82525050565b600060c08201905061098c60008301896108df565b818103602083015261099e818861064a565b90506109ad60408301876108df565b81810360608301526109bf818661064a565b905081810360808301526109d3818561064a565b90506109e260a0830184610968565b979650505050505050565b7f4e487b7100000000000000000000000000000000000000000000000000000000600052602260045260246000fd5b60006002820490506001821680610a3457607f821691505b60208210811415610a4857610a476109ed565b5b50919050565b7f4e487b7100000000000000000000000000000000000000000000000000000000600052601160045260246000fd5b6000610a88826107ee565b91507fffffffffffffffffffffffffffffffffffffffffffffffffffffffffffffffff821415610abb57610aba610a4e565b5b60018201905091905056fea2646970667358221220b5e6c35b54249cb16a8e0936905feb50aa68880017bcd488c01174caaa87732764736f6c634300080b0033",
  "immutableReferences": {},
  "source": "// SPDX-License-Identifier: MIT\npragma solidity >=0.4.22 <0.9.0;\n\ncontract Persssist {\n    string public name = \"Persssist\";\n    uint256 public fileCount = 0;\n    mapping(uint256 => File) public files;\n\n    struct File {\n        uint256 fileId;\n        string filePath;\n        uint256 fileSize;\n        string fileType;\n        string fileName;\n        address payable uploader;\n    }\n\n    event FileUploaded(\n        uint256 fileId,\n        string filePath,\n        uint256 fileSize,\n        string fileType,\n        string fileName,\n        address payable uploader\n    );\n\n    function uploadFile(\n        string memory _filePath,\n        uint256 _fileSize,\n        string memory _fileType,\n        string memory _fileName\n    ) public {\n        require(bytes(_filePath).length > 0);\n        require(bytes(_fileType).length > 0);\n        require(bytes(_fileName).length > 0);\n        require(msg.sender != address(0));\n        require(_fileSize > 0);\n\n        fileCount++;\n\n        files[fileCount] = File(\n            fileCount,\n            _filePath,\n            _fileSize,\n            _fileType,\n            _fileName,\n            payable(msg.sender)\n        );\n        \n        emit FileUploaded(\n            fileCount,\n            _filePath,\n            _fileSize,\n            _fileType,\n            _fileName,\n            payable(msg.sender)\n        );\n    }\n}\n",
  "sourcePath": "/Users/marcoscarlomagno/repositories/persssist/contracts/Persssist.sol",
  "compiler": {
    "name": "solc",
    "version": "0.8.11+commit.d7f03943.Emscripten.clang"
  },
  "schemaVersion": "3.4.6",
  "updatedAt": "2022-04-01T02:42:02.440Z",
  "networkType": "ethereum",
  "devdoc": {
    "kind": "dev",
    "methods": {},
    "version": 1
  },
  "userdoc": {
    "kind": "user",
    "methods": {},
    "version": 1
  }
}